{
  "contractName": "Auction",
  "abi": [
    {
      "inputs": [],
      "stateMutability": "nonpayable",
      "type": "constructor"
    },
    {
      "anonymous": false,
      "inputs": [
        {
          "indexed": false,
          "internalType": "string",
          "name": "_message",
          "type": "string"
        },
        {
          "indexed": false,
          "internalType": "address",
          "name": "winner",
          "type": "address"
        }
      ],
      "name": "Result",
      "type": "event"
    },
    {
      "anonymous": false,
      "inputs": [
        {
          "indexed": false,
          "internalType": "string",
          "name": "_message",
          "type": "string"
        }
      ],
      "name": "Status",
      "type": "event"
    },
    {
      "inputs": [],
      "name": "highestBidder",
      "outputs": [
        {
          "internalType": "address payable",
          "name": "",
          "type": "address"
        }
      ],
      "stateMutability": "view",
      "type": "function"
    },
    {
      "inputs": [],
      "name": "highestPrice",
      "outputs": [
        {
          "internalType": "uint256",
          "name": "",
          "type": "uint256"
        }
      ],
      "stateMutability": "view",
      "type": "function"
    },
    {
      "inputs": [],
      "name": "newOwner",
      "outputs": [
        {
          "internalType": "address",
          "name": "",
          "type": "address"
        }
      ],
      "stateMutability": "view",
      "type": "function"
    },
    {
      "inputs": [],
      "name": "originalOwner",
      "outputs": [
        {
          "internalType": "address payable",
          "name": "",
          "type": "address"
        }
      ],
      "stateMutability": "view",
      "type": "function"
    },
    {
      "inputs": [],
      "name": "bid",
      "outputs": [],
      "stateMutability": "payable",
      "type": "function"
    },
    {
      "inputs": [],
      "name": "checkIfAuctionEnded",
      "outputs": [],
      "stateMutability": "nonpayable",
      "type": "function"
    },
    {
      "inputs": [],
      "name": "stopAuction",
      "outputs": [],
      "stateMutability": "nonpayable",
      "type": "function"
    },
    {
      "inputs": [],
      "name": "getAuctionInfo",
      "outputs": [
        {
          "internalType": "string",
          "name": "",
          "type": "string"
        },
        {
          "internalType": "uint256",
          "name": "",
          "type": "uint256"
        },
        {
          "internalType": "uint256",
          "name": "",
          "type": "uint256"
        }
      ],
      "stateMutability": "view",
      "type": "function"
    },
    {
      "inputs": [],
      "name": "getHighestPrice",
      "outputs": [
        {
          "internalType": "uint256",
          "name": "",
          "type": "uint256"
        }
      ],
      "stateMutability": "view",
      "type": "function"
    },
    {
      "inputs": [],
      "name": "getHighestBidder",
      "outputs": [
        {
          "internalType": "address",
          "name": "",
          "type": "address"
        }
      ],
      "stateMutability": "view",
      "type": "function"
    },
    {
      "inputs": [],
      "name": "getDescription",
      "outputs": [
        {
          "internalType": "string",
          "name": "",
          "type": "string"
        }
      ],
      "stateMutability": "view",
      "type": "function"
    },
    {
      "inputs": [],
      "name": "getImageURI",
      "outputs": [
        {
          "internalType": "string",
          "name": "",
          "type": "string"
        }
      ],
      "stateMutability": "view",
      "type": "function"
    },
    {
      "inputs": [],
      "name": "getBasePrice",
      "outputs": [
        {
          "internalType": "uint256",
          "name": "",
          "type": "uint256"
        }
      ],
      "stateMutability": "view",
      "type": "function"
    },
    {
      "inputs": [],
      "name": "isActive",
      "outputs": [
        {
          "internalType": "bool",
          "name": "",
          "type": "bool"
        }
      ],
      "stateMutability": "view",
      "type": "function"
    }
  ],
  "bytecode": "0x60806040523480156200001157600080fd5b506040518060600160405280603e8152602001620015f8603e9139600090816200003c91906200039a565b506040518060c00160405280608881526020016200163660889139600190816200006791906200039a565b5067016345785d8a00006002819055506102586003819055506001600960006101000a81548160ff0219169083151502179055504260048190555033600560006101000a81548173ffffffffffffffffffffffffffffffffffffffff021916908373ffffffffffffffffffffffffffffffffffffffff1602179055507f2844c95bf1b4598da931d527f903501abc60fe0199c65da52d5ce818c6c5e9616040516200011290620004e2565b60405180910390a162000504565b600081519050919050565b7f4e487b7100000000000000000000000000000000000000000000000000000000600052604160045260246000fd5b7f4e487b7100000000000000000000000000000000000000000000000000000000600052602260045260246000fd5b60006002820490506001821680620001a257607f821691505b602082108103620001b857620001b76200015a565b5b50919050565b60008190508160005260206000209050919050565b60006020601f8301049050919050565b600082821b905092915050565b600060088302620002227fffffffffffffffffffffffffffffffffffffffffffffffffffffffffffffffff82620001e3565b6200022e8683620001e3565b95508019841693508086168417925050509392505050565b6000819050919050565b6000819050919050565b60006200027b620002756200026f8462000246565b62000250565b62000246565b9050919050565b6000819050919050565b62000297836200025a565b620002af620002a68262000282565b848454620001f0565b825550505050565b600090565b620002c6620002b7565b620002d38184846200028c565b505050565b5b81811015620002fb57620002ef600082620002bc565b600181019050620002d9565b5050565b601f8211156200034a576200031481620001be565b6200031f84620001d3565b810160208510156200032f578190505b620003476200033e85620001d3565b830182620002d8565b50505b505050565b600082821c905092915050565b60006200036f600019846008026200034f565b1980831691505092915050565b60006200038a83836200035c565b9150826002028217905092915050565b620003a58262000120565b67ffffffffffffffff811115620003c157620003c06200012b565b5b620003cd825462000189565b620003da828285620002ff565b600060209050601f831160018114620004125760008415620003fd578287015190505b6200040985826200037c565b86555062000479565b601f1984166200042286620001be565b60005b828110156200044c5784890151825560018201915060208501945060208101905062000425565b868310156200046c578489015162000468601f8916826200035c565b8355505b6001600288020188555050505b505050505050565b600082825260208201905092915050565b7f5375626173746120637265616461000000000000000000000000000000000000600082015250565b6000620004ca600e8362000481565b9150620004d78262000492565b602082019050919050565b60006020820190508181036000830152620004fd81620004bb565b9050919050565b6110e480620005146000396000f3fe6080604052600436106100dc5760003560e01c8063b49f4afd1161007f578063d4ee1d9011610059578063d4ee1d9014610246578063d94a350514610271578063ded7222b1461029e578063f1fffdcb146102c9576100dc565b8063b49f4afd146101d9578063bc6f1f1b14610204578063cf1f29741461022f576100dc565b80631a092541116100bb5780631a0925411461014157806322f3e2d41461016c578063269b9a081461019757806391f90157146101ae576100dc565b80623495a4146100e15780630e8670e01461010c5780631998aeef14610137575b600080fd5b3480156100ed57600080fd5b506100f66102f4565b6040516101039190610ac5565b60405180910390f35b34801561011857600080fd5b5061012161031e565b60405161012e9190610af9565b60405180910390f35b61013f610324565b005b34801561014d57600080fd5b506101566104de565b6040516101639190610ba4565b60405180910390f35b34801561017857600080fd5b50610181610570565b60405161018e9190610be1565b60405180910390f35b3480156101a357600080fd5b506101ac610587565b005b3480156101ba57600080fd5b506101c361072d565b6040516101d09190610c1d565b60405180910390f35b3480156101e557600080fd5b506101ee610753565b6040516101fb9190610af9565b60405180910390f35b34801561021057600080fd5b5061021961075d565b6040516102269190610af9565b60405180910390f35b34801561023b57600080fd5b50610244610767565b005b34801561025257600080fd5b5061025b610902565b6040516102689190610ac5565b60405180910390f35b34801561027d57600080fd5b50610286610928565b60405161029593929190610c38565b60405180910390f35b3480156102aa57600080fd5b506102b36109cc565b6040516102c09190610ba4565b60405180910390f35b3480156102d557600080fd5b506102de610a5e565b6040516102eb9190610c1d565b60405180910390f35b6000600760009054906101000a900473ffffffffffffffffffffffffffffffffffffffff16905090565b60085481565b6003546004546103349190610ca5565b42118015610355575060011515600960009054906101000a900460ff161515145b1561036757610362610767565b6104dc565b60085434118015610379575060025434115b1561046b57600760009054906101000a900473ffffffffffffffffffffffffffffffffffffffff1673ffffffffffffffffffffffffffffffffffffffff166108fc6008549081150290604051600060405180830381858888f193505050501580156103e8573d6000803e3d6000fd5b5033600760006101000a81548173ffffffffffffffffffffffffffffffffffffffff021916908373ffffffffffffffffffffffffffffffffffffffff160217905550346008819055507f2844c95bf1b4598da931d527f903501abc60fe0199c65da52d5ce818c6c5e96160405161045e90610d4b565b60405180910390a16104db565b7f2844c95bf1b4598da931d527f903501abc60fe0199c65da52d5ce818c6c5e96160405161049890610ddd565b60405180910390a16040517f08c379a00000000000000000000000000000000000000000000000000000000081526004016104d290610ddd565b60405180910390fd5b5b565b6060600080546104ed90610e2c565b80601f016020809104026020016040519081016040528092919081815260200182805461051990610e2c565b80156105665780601f1061053b57610100808354040283529160200191610566565b820191906000526020600020905b81548152906001019060200180831161054957829003601f168201915b5050505050905090565b6000600960009054906101000a900460ff16905090565b600560009054906101000a900473ffffffffffffffffffffffffffffffffffffffff1673ffffffffffffffffffffffffffffffffffffffff163373ffffffffffffffffffffffffffffffffffffffff1614610617576040517f08c379a000000000000000000000000000000000000000000000000000000000815260040161060e90610ea9565b60405180910390fd5b6000600960006101000a81548160ff021916908315150217905550600073ffffffffffffffffffffffffffffffffffffffff16600760009054906101000a900473ffffffffffffffffffffffffffffffffffffffff1673ffffffffffffffffffffffffffffffffffffffff16146106f457600760009054906101000a900473ffffffffffffffffffffffffffffffffffffffff1673ffffffffffffffffffffffffffffffffffffffff166108fc6008549081150290604051600060405180830381858888f193505050501580156106f2573d6000803e3d6000fd5b505b7fbb9721a0a3c06497a88ed083ae73d825db6e63e077545032e06a18fecb27d8ab336040516107239190610f15565b60405180910390a1565b600760009054906101000a900473ffffffffffffffffffffffffffffffffffffffff1681565b6000600254905090565b6000600854905090565b6003546004546107779190610ca5565b4211156108c5576000600960006101000a81548160ff021916908315150217905550600760009054906101000a900473ffffffffffffffffffffffffffffffffffffffff16600660006101000a81548173ffffffffffffffffffffffffffffffffffffffff021916908373ffffffffffffffffffffffffffffffffffffffff160217905550600560009054906101000a900473ffffffffffffffffffffffffffffffffffffffff1673ffffffffffffffffffffffffffffffffffffffff166108fc6008549081150290604051600060405180830381858888f19350505050158015610866573d6000803e3d6000fd5b507fbb9721a0a3c06497a88ed083ae73d825db6e63e077545032e06a18fecb27d8ab600760009054906101000a900473ffffffffffffffffffffffffffffffffffffffff166040516108b89190611014565b60405180910390a1610900565b6040517f08c379a00000000000000000000000000000000000000000000000000000000081526004016108f79061108e565b60405180910390fd5b565b600660009054906101000a900473ffffffffffffffffffffffffffffffffffffffff1681565b6060600080600060045460035482805461094190610e2c565b80601f016020809104026020016040519081016040528092919081815260200182805461096d90610e2c565b80156109ba5780601f1061098f576101008083540402835291602001916109ba565b820191906000526020600020905b81548152906001019060200180831161099d57829003601f168201915b50505050509250925092509250909192565b6060600180546109db90610e2c565b80601f0160208091040260200160405190810160405280929190818152602001828054610a0790610e2c565b8015610a545780601f10610a2957610100808354040283529160200191610a54565b820191906000526020600020905b815481529060010190602001808311610a3757829003601f168201915b5050505050905090565b600560009054906101000a900473ffffffffffffffffffffffffffffffffffffffff1681565b600073ffffffffffffffffffffffffffffffffffffffff82169050919050565b6000610aaf82610a84565b9050919050565b610abf81610aa4565b82525050565b6000602082019050610ada6000830184610ab6565b92915050565b6000819050919050565b610af381610ae0565b82525050565b6000602082019050610b0e6000830184610aea565b92915050565b600081519050919050565b600082825260208201905092915050565b60005b83811015610b4e578082015181840152602081019050610b33565b60008484015250505050565b6000601f19601f8301169050919050565b6000610b7682610b14565b610b808185610b1f565b9350610b90818560208601610b30565b610b9981610b5a565b840191505092915050565b60006020820190508181036000830152610bbe8184610b6b565b905092915050565b60008115159050919050565b610bdb81610bc6565b82525050565b6000602082019050610bf66000830184610bd2565b92915050565b6000610c0782610a84565b9050919050565b610c1781610bfc565b82525050565b6000602082019050610c326000830184610c0e565b92915050565b60006060820190508181036000830152610c528186610b6b565b9050610c616020830185610aea565b610c6e6040830184610aea565b949350505050565b7f4e487b7100000000000000000000000000000000000000000000000000000000600052601160045260246000fd5b6000610cb082610ae0565b9150610cbb83610ae0565b9250828201905080821115610cd357610cd2610c76565b5b92915050565b7f4e756576612070756a61206d617320616c74612c20656c20756c74696d6f207060008201527f6f73746f72207469656e652073752064696e65726f206465207675656c746100602082015250565b6000610d35603f83610b1f565b9150610d4082610cd9565b604082019050919050565b60006020820190508181036000830152610d6481610d28565b9050919050565b7f4c612070756a61206e6f20657320706f7369626c652c206e6f206573206c6f2060008201527f737566696369656e74656d656e746520616c7461000000000000000000000000602082015250565b6000610dc7603483610b1f565b9150610dd282610d6b565b604082019050919050565b60006020820190508181036000830152610df681610dba565b9050919050565b7f4e487b7100000000000000000000000000000000000000000000000000000000600052602260045260246000fd5b60006002820490506001821680610e4457607f821691505b602082108103610e5757610e56610dfd565b5b50919050565b7f596f75206d75737420626520746865206f726967696e616c204f574e45520000600082015250565b6000610e93601e83610b1f565b9150610e9e82610e5d565b602082019050919050565b60006020820190508181036000830152610ec281610e86565b9050919050565b7f4c6120737562617374612073652068612070617261646f000000000000000000600082015250565b6000610eff601783610b1f565b9150610f0a82610ec9565b602082019050919050565b60006040820190508181036000830152610f2e81610ef2565b9050610f3d6020830184610ab6565b92915050565b7f456c2067616e61646f72206465206c612073756261737461206861207369646f60008201527f3a00000000000000000000000000000000000000000000000000000000000000602082015250565b6000610f9f602183610b1f565b9150610faa82610f43565b604082019050919050565b6000819050919050565b6000610fda610fd5610fd084610a84565b610fb5565b610a84565b9050919050565b6000610fec82610fbf565b9050919050565b6000610ffe82610fe1565b9050919050565b61100e81610ff3565b82525050565b6000604082019050818103600083015261102d81610f92565b905061103c6020830184611005565b92915050565b7f4c61207375626173746120657374612061637469766100000000000000000000600082015250565b6000611078601683610b1f565b915061108382611042565b602082019050919050565b600060208201905081810360008301526110a78161106b565b905091905056fea2646970667358221220d9390431bead375f96a32e481799b0b601251fd92089ef928ffdc4baf483803a64736f6c63430008130033436572746966696361646f20646520696e636170616369646164206465206c6120636c696e6963612070616369656e7465204b6576696e2044757373616e68747470733a2f2f6d61726b6574706c6163652e63616e76612e636f6d2f454146464662554d4663492f312f302f31363030772f63616e76612d636572746966696361646f2d7265636f6e6f63696d69656e746f2d636c2543332541317369636f2d656c6567616e74652d617a756c2d792d646f7261646f2d524f37526f3067502d57512e6a7067",
  "immutableReferences": {},
  "source": "// Version de solidity del Smart Contract\r\n// SPDX-License-Identifier: UNLICENSED\r\n\r\npragma solidity ^0.8.16;\r\n\r\n// Informacion del Smart Contract\r\n// Nombre: Subasta\r\n// Logica: Implementa subasta de productos entre varios participantes\r\n\r\n// Declaracion del Smart Contract - Auction\r\ncontract Auction {\r\n\r\n    // ----------- Variables (datos) -----------\r\n    // Informacin de la subasta\r\n    string private description;\r\n    string private imageURI;\r\n    uint private basePrice;\r\n    uint256 private secondsToEnd;\r\n    uint256 private createdTime;\r\n\r\n    // Antiguo/nuevo dueo de subasta\r\n    address payable public originalOwner;\r\n    address public newOwner;\r\n\r\n    // Puja mas alta\r\n    address payable public highestBidder;\r\n    uint public highestPrice;\r\n    \r\n    // Estado de la subasta\r\n    bool private activeContract;\r\n    \r\n    // ----------- Eventos (pueden ser emitidos por el Smart Contract) -----------\r\n    event Status(string _message);\r\n    event Result(string _message, address winner);\r\n\r\n    // ----------- Constructor -----------\r\n    // Uso: Inicializa el Smart Contract - Auction con: description, precio y tiempo\r\n    constructor() {\r\n        \r\n        // Inicializo el valor a las variables (datos)\r\n        description = \"Certificado de incapacidad de la clinica paciente Kevin Dussan\";\r\n        imageURI = \"https://marketplace.canva.com/EAFFFbUMFcI/1/0/1600w/canva-certificado-reconocimiento-cl%C3%A1sico-elegante-azul-y-dorado-RO7Ro0gP-WQ.jpg\";\r\n        basePrice = 0.1 ether;   \r\n        secondsToEnd = 600;   // 86400 = 24h | 3600 = 1h | 900 = 15 min | 600 = 10 min\r\n        activeContract = true;\r\n        createdTime = block.timestamp;\r\n        originalOwner = payable(msg.sender);\r\n        \r\n        // Se emite un Evento\r\n        emit Status(\"Subasta creada\");\r\n    }\r\n    \r\n    // ------------ Funciones que modifican datos (set) ------------\r\n\r\n    // Funcion\r\n    // Nombre: bid\r\n    // Uso:    Permite a cualquier postor hacer una oferta de dinero para la subata\r\n    //         El dinero es almacenado en el contrato, junto con el nombre del postor\r\n    //         El postor cuya oferta ha sido superada recibe de vuelta el dinero pujado\r\n    function bid() public payable {\r\n        if(block.timestamp > (createdTime + secondsToEnd)  && activeContract == true){\r\n            checkIfAuctionEnded();\r\n        } else {\r\n            if (msg.value > highestPrice && msg.value > basePrice){\r\n                // Devuelve el dinero al ANTIGUO maximo postor\r\n                highestBidder.transfer(highestPrice);\r\n                \r\n                // Actualiza el nombre y precio al NUEVO maximo postor\r\n                highestBidder = payable(msg.sender);\r\n                highestPrice = msg.value;\r\n                \r\n                // Se emite un evento\r\n                emit Status(\"Nueva puja mas alta, el ultimo postor tiene su dinero de vuelta\");\r\n            } else {\r\n                // Se emite un evento\r\n                emit Status(\"La puja no es posible, no es lo suficientemente alta\");\r\n                revert(\"La puja no es posible, no es lo suficientemente alta\");\r\n            }\r\n        }\r\n    }\r\n\r\n    // Funcion\r\n    // Nombre: checkIfAuctionEnded\r\n    // Uso:    Comprueba si la puja ha terminado, y en ese caso, \r\n    //         transfiere el balance del contrato al propietario de la subasta \r\n    function checkIfAuctionEnded() public{\r\n        if (block.timestamp > (createdTime + secondsToEnd)){\r\n            // Finaliza la subasta\r\n            activeContract = false;\r\n            \r\n            // Transfiere el dinero (maxima puja) al propietario original de la subasta\r\n            newOwner = highestBidder;\r\n            originalOwner.transfer(highestPrice);\r\n            \r\n            // Se emite el evento de resultado\r\n            emit Result(\"El ganador de la subasta ha sido:\", highestBidder);\r\n        } else {\r\n            revert(\"La subasta esta activa\");\r\n        }\r\n    }\r\n        \r\n    // ------------ Funciones de panico/emergencia ------------\r\n\r\n    // Funcion\r\n    // Nombre: stopAuction\r\n    // Uso:    Para la subasta y devuelve el dinero al maximo postor\r\n    function stopAuction() public{\r\n        require(msg.sender == originalOwner, \"You must be the original OWNER\");\r\n        // Finaliza la subasta\r\n        activeContract = false;\r\n        // Devuelve el dinero al maximo postor\r\n        if (highestBidder != address(0x0)){\r\n            highestBidder.transfer(highestPrice);\r\n        }\r\n        \r\n        // Se emite un evento\r\n        emit Result(\"La subasta se ha parado\", msg.sender);\r\n    }\r\n    \r\n    // ------------ Funciones que consultan datos (get) ------------\r\n\r\n    // Funcion\r\n    // Nombre: getAuctionInfo\r\n    // Logica: Consulta la description, la fecha de creacion y el tiempo de la subasta\r\n    function getAuctionInfo() public view returns (string memory, uint, uint){\r\n        return (description, createdTime, secondsToEnd);\r\n    }\r\n    \r\n    // Funcion\r\n    // Nombre: getHighestPrice\r\n    // Logica: Consulta el precio de la maxima puja\r\n    function getHighestPrice() public view returns (uint){\r\n        return (highestPrice);\r\n    }\r\n\r\n    // Funcion\r\n    // Nombre: getHighestBidder\r\n    // Logica: Consulta el maximo pujador de la subasta\r\n    function getHighestBidder() public view returns (address){\r\n        return (highestBidder);\r\n    }\r\n\r\n    // Funcion\r\n    // Nombre: getDescription\r\n    // Logica: Consulta la descripcion de la subasta\r\n    function getDescription() public view returns (string memory){\r\n        return (description);\r\n    }\r\n\r\n    // Funcion\r\n    // Nombre: getImageURI\r\n    // Logica: Consulta la imagen del activo subastado\r\n    function getImageURI() public view returns (string memory){\r\n        return (imageURI);\r\n    }\r\n\r\n    // Funcion\r\n    // Nombre: getBasePrice\r\n    // Logica: Consulta el precio inicial de la subasta\r\n    function getBasePrice() public view returns (uint256){\r\n        return (basePrice);\r\n    }\r\n\r\n    // Funcion\r\n    // Nombre: getActiveContract\r\n    // Logica: Consulta si la subasta esta activa o no\r\n    function isActive() public view returns (bool){\r\n        return (activeContract);\r\n    }\r\n    \r\n}",
  "sourcePath": "C:\\xampp\\htdocs\\Dapp\\contracts\\Auction.sol",
  "compiler": {
    "name": "solc",
    "version": "0.8.19+commit.7dd6d404.Emscripten.clang"
  },
  "schemaVersion": "3.4.13",
  "updatedAt": "2023-05-01T23:26:14.790Z",
  "devdoc": {
    "kind": "dev",
    "methods": {},
    "version": 1
  },
  "userdoc": {
    "kind": "user",
    "methods": {},
    "version": 1
  }
}