{
  "contractName": "HistoriaClinica",
  "abi": [
    {
      "anonymous": false,
      "inputs": [
        {
          "indexed": true,
          "internalType": "address",
          "name": "paciente",
          "type": "address"
        },
        {
          "indexed": false,
          "internalType": "string",
          "name": "nombre",
          "type": "string"
        },
        {
          "indexed": false,
          "internalType": "uint256",
          "name": "edad",
          "type": "uint256"
        },
        {
          "indexed": false,
          "internalType": "string",
          "name": "diagnostico",
          "type": "string"
        },
        {
          "indexed": false,
          "internalType": "address",
          "name": "medico",
          "type": "address"
        }
      ],
      "name": "PacienteAgregado",
      "type": "event"
    },
    {
      "inputs": [
        {
          "internalType": "address",
          "name": "",
          "type": "address"
        }
      ],
      "name": "pacientes",
      "outputs": [
        {
          "internalType": "uint256",
          "name": "id",
          "type": "uint256"
        },
        {
          "internalType": "string",
          "name": "nombre",
          "type": "string"
        },
        {
          "internalType": "uint256",
          "name": "edad",
          "type": "uint256"
        },
        {
          "internalType": "string",
          "name": "diagnostico",
          "type": "string"
        },
        {
          "internalType": "address",
          "name": "medico",
          "type": "address"
        },
        {
          "internalType": "bool",
          "name": "autorizado",
          "type": "bool"
        }
      ],
      "stateMutability": "view",
      "type": "function",
      "constant": true
    },
    {
      "inputs": [
        {
          "internalType": "address",
          "name": "_paciente",
          "type": "address"
        },
        {
          "internalType": "string",
          "name": "_nombre",
          "type": "string"
        },
        {
          "internalType": "uint256",
          "name": "_edad",
          "type": "uint256"
        },
        {
          "internalType": "string",
          "name": "_diagnostico",
          "type": "string"
        }
      ],
      "name": "agregarPaciente",
      "outputs": [],
      "stateMutability": "nonpayable",
      "type": "function"
    },
    {
      "inputs": [
        {
          "internalType": "address",
          "name": "_paciente",
          "type": "address"
        }
      ],
      "name": "obtenerInformacionPaciente",
      "outputs": [
        {
          "internalType": "uint256",
          "name": "",
          "type": "uint256"
        },
        {
          "internalType": "string",
          "name": "",
          "type": "string"
        },
        {
          "internalType": "uint256",
          "name": "",
          "type": "uint256"
        },
        {
          "internalType": "string",
          "name": "",
          "type": "string"
        }
      ],
      "stateMutability": "view",
      "type": "function",
      "constant": true
    },
    {
      "inputs": [
        {
          "internalType": "address",
          "name": "_paciente",
          "type": "address"
        },
        {
          "internalType": "string",
          "name": "_diagnostico",
          "type": "string"
        }
      ],
      "name": "actualizarDiagnostico",
      "outputs": [],
      "stateMutability": "nonpayable",
      "type": "function"
    },
    {
      "inputs": [
        {
          "internalType": "address",
          "name": "_medico",
          "type": "address"
        }
      ],
      "name": "isDoctor",
      "outputs": [
        {
          "internalType": "bool",
          "name": "",
          "type": "bool"
        }
      ],
      "stateMutability": "view",
      "type": "function",
      "constant": true
    },
    {
      "inputs": [
        {
          "internalType": "address",
          "name": "_medico",
          "type": "address"
        },
        {
          "internalType": "address",
          "name": "_paciente",
          "type": "address"
        }
      ],
      "name": "autorizarMedico",
      "outputs": [],
      "stateMutability": "nonpayable",
      "type": "function"
    },
    {
      "inputs": [
        {
          "internalType": "address",
          "name": "_medico",
          "type": "address"
        },
        {
          "internalType": "address",
          "name": "_paciente",
          "type": "address"
        }
      ],
      "name": "revocarAutorizacionMedico",
      "outputs": [],
      "stateMutability": "nonpayable",
      "type": "function"
    }
  ],
  "bytecode": "0x608060405234801561001057600080fd5b5061193b806100206000396000f3fe608060405234801561001057600080fd5b506004361061007d5760003560e01c80639b56bfa91161005b5780639b56bfa9146100ea578063a96047e91461011d578063bc14b7dc14610139578063d2f669d21461016e5761007d565b806308e87b56146100825780635f6776961461009e578063996440c6146100ba575b600080fd5b61009c60048036038101906100979190610e58565b61018a565b005b6100b860048036038101906100b39190610e58565b6102fa565b005b6100d460048036038101906100cf9190610e98565b610539565b6040516100e19190610ee0565b60405180910390f35b61010460048036038101906100ff9190610e98565b610591565b6040516101149493929190610fa4565b60405180910390f35b6101376004803603810190610132919061112c565b6108c5565b005b610153600480360381019061014e9190610e98565b610a2a565b60405161016596959493929190611197565b60405180910390f35b61018860048036038101906101839190611232565b610ba3565b005b6000803373ffffffffffffffffffffffffffffffffffffffff1673ffffffffffffffffffffffffffffffffffffffff16815260200190815260200160002060040160149054906101000a900460ff16610218576040517f08c379a000000000000000000000000000000000000000000000000000000000815260040161020f90611343565b60405180910390fd5b60008060008373ffffffffffffffffffffffffffffffffffffffff1673ffffffffffffffffffffffffffffffffffffffff168152602001908152602001600020600001540361029c576040517f08c379a0000000000000000000000000000000000000000000000000000000008152600401610293906113d5565b60405180910390fd5b60016000808373ffffffffffffffffffffffffffffffffffffffff1673ffffffffffffffffffffffffffffffffffffffff16815260200190815260200160002060040160146101000a81548160ff0219169083151502179055505050565b6000803373ffffffffffffffffffffffffffffffffffffffff1673ffffffffffffffffffffffffffffffffffffffff16815260200190815260200160002060040160149054906101000a900460ff16610388576040517f08c379a000000000000000000000000000000000000000000000000000000000815260040161037f90611343565b60405180910390fd5b60008060008373ffffffffffffffffffffffffffffffffffffffff1673ffffffffffffffffffffffffffffffffffffffff168152602001908152602001600020600001540361040c576040517f08c379a0000000000000000000000000000000000000000000000000000000008152600401610403906113d5565b60405180910390fd5b8173ffffffffffffffffffffffffffffffffffffffff166000808373ffffffffffffffffffffffffffffffffffffffff1673ffffffffffffffffffffffffffffffffffffffff16815260200190815260200160002060040160009054906101000a900473ffffffffffffffffffffffffffffffffffffffff1673ffffffffffffffffffffffffffffffffffffffff16146104db576040517f08c379a00000000000000000000000000000000000000000000000000000000081526004016104d29061148d565b60405180910390fd5b60008060008373ffffffffffffffffffffffffffffffffffffffff1673ffffffffffffffffffffffffffffffffffffffff16815260200190815260200160002060040160146101000a81548160ff0219169083151502179055505050565b60008060008373ffffffffffffffffffffffffffffffffffffffff1673ffffffffffffffffffffffffffffffffffffffff16815260200190815260200160002060040160149054906101000a900460ff169050919050565b60006060600060606000803373ffffffffffffffffffffffffffffffffffffffff1673ffffffffffffffffffffffffffffffffffffffff16815260200190815260200160002060040160149054906101000a900460ff16610627576040517f08c379a000000000000000000000000000000000000000000000000000000000815260040161061e90611343565b60405180910390fd5b60008060008773ffffffffffffffffffffffffffffffffffffffff1673ffffffffffffffffffffffffffffffffffffffff16815260200190815260200160002060000154036106ab576040517f08c379a00000000000000000000000000000000000000000000000000000000081526004016106a2906113d5565b60405180910390fd5b60008060008773ffffffffffffffffffffffffffffffffffffffff1673ffffffffffffffffffffffffffffffffffffffff1681526020019081526020016000206040518060c001604052908160008201548152602001600182018054610710906114dc565b80601f016020809104026020016040519081016040528092919081815260200182805461073c906114dc565b80156107895780601f1061075e57610100808354040283529160200191610789565b820191906000526020600020905b81548152906001019060200180831161076c57829003601f168201915b50505050508152602001600282015481526020016003820180546107ac906114dc565b80601f01602080910402602001604051908101604052809291908181526020018280546107d8906114dc565b80156108255780601f106107fa57610100808354040283529160200191610825565b820191906000526020600020905b81548152906001019060200180831161080857829003601f168201915b505050505081526020016004820160009054906101000a900473ffffffffffffffffffffffffffffffffffffffff1673ffffffffffffffffffffffffffffffffffffffff1673ffffffffffffffffffffffffffffffffffffffff1681526020016004820160149054906101000a900460ff161515151581525050905080600001518160200151826040015183606001519450945094509450509193509193565b6000803373ffffffffffffffffffffffffffffffffffffffff1673ffffffffffffffffffffffffffffffffffffffff16815260200190815260200160002060040160149054906101000a900460ff16610953576040517f08c379a000000000000000000000000000000000000000000000000000000000815260040161094a90611343565b60405180910390fd5b60008060008473ffffffffffffffffffffffffffffffffffffffff1673ffffffffffffffffffffffffffffffffffffffff16815260200190815260200160002060000154036109d7576040517f08c379a00000000000000000000000000000000000000000000000000000000081526004016109ce906113d5565b60405180910390fd5b806000808473ffffffffffffffffffffffffffffffffffffffff1673ffffffffffffffffffffffffffffffffffffffff1681526020019081526020016000206003019081610a2591906116b9565b505050565b6000602052806000526040600020600091509050806000015490806001018054610a53906114dc565b80601f0160208091040260200160405190810160405280929190818152602001828054610a7f906114dc565b8015610acc5780601f10610aa157610100808354040283529160200191610acc565b820191906000526020600020905b815481529060010190602001808311610aaf57829003601f168201915b505050505090806002015490806003018054610ae7906114dc565b80601f0160208091040260200160405190810160405280929190818152602001828054610b13906114dc565b8015610b605780601f10610b3557610100808354040283529160200191610b60565b820191906000526020600020905b815481529060010190602001808311610b4357829003601f168201915b5050505050908060040160009054906101000a900473ffffffffffffffffffffffffffffffffffffffff16908060040160149054906101000a900460ff16905086565b60008060008673ffffffffffffffffffffffffffffffffffffffff1673ffffffffffffffffffffffffffffffffffffffff1681526020019081526020016000206000015414610c27576040517f08c379a0000000000000000000000000000000000000000000000000000000008152600401610c1e906117fd565b60405180910390fd5b60004285604051602001610c3c929190611886565b6040516020818303038152906040528051906020012060001c905060006040518060c001604052808381526020018681526020018581526020018481526020013373ffffffffffffffffffffffffffffffffffffffff168152602001600115158152509050806000808873ffffffffffffffffffffffffffffffffffffffff1673ffffffffffffffffffffffffffffffffffffffff168152602001908152602001600020600082015181600001556020820151816001019081610cff91906116b9565b50604082015181600201556060820151816003019081610d1f91906116b9565b5060808201518160040160006101000a81548173ffffffffffffffffffffffffffffffffffffffff021916908373ffffffffffffffffffffffffffffffffffffffff16021790555060a08201518160040160146101000a81548160ff0219169083151502179055509050508573ffffffffffffffffffffffffffffffffffffffff167fe9fce0d4cdb12de49f264ab3c362f8ceb8a49e6b14f8391dfc0d1c651abb143886868633604051610dd694939291906118b2565b60405180910390a2505050505050565b6000604051905090565b600080fd5b600080fd5b600073ffffffffffffffffffffffffffffffffffffffff82169050919050565b6000610e2582610dfa565b9050919050565b610e3581610e1a565b8114610e4057600080fd5b50565b600081359050610e5281610e2c565b92915050565b60008060408385031215610e6f57610e6e610df0565b5b6000610e7d85828601610e43565b9250506020610e8e85828601610e43565b9150509250929050565b600060208284031215610eae57610ead610df0565b5b6000610ebc84828501610e43565b91505092915050565b60008115159050919050565b610eda81610ec5565b82525050565b6000602082019050610ef56000830184610ed1565b92915050565b6000819050919050565b610f0e81610efb565b82525050565b600081519050919050565b600082825260208201905092915050565b60005b83811015610f4e578082015181840152602081019050610f33565b60008484015250505050565b6000601f19601f8301169050919050565b6000610f7682610f14565b610f808185610f1f565b9350610f90818560208601610f30565b610f9981610f5a565b840191505092915050565b6000608082019050610fb96000830187610f05565b8181036020830152610fcb8186610f6b565b9050610fda6040830185610f05565b8181036060830152610fec8184610f6b565b905095945050505050565b600080fd5b600080fd5b7f4e487b7100000000000000000000000000000000000000000000000000000000600052604160045260246000fd5b61103982610f5a565b810181811067ffffffffffffffff8211171561105857611057611001565b5b80604052505050565b600061106b610de6565b90506110778282611030565b919050565b600067ffffffffffffffff82111561109757611096611001565b5b6110a082610f5a565b9050602081019050919050565b82818337600083830152505050565b60006110cf6110ca8461107c565b611061565b9050828152602081018484840111156110eb576110ea610ffc565b5b6110f68482856110ad565b509392505050565b600082601f83011261111357611112610ff7565b5b81356111238482602086016110bc565b91505092915050565b6000806040838503121561114357611142610df0565b5b600061115185828601610e43565b925050602083013567ffffffffffffffff81111561117257611171610df5565b5b61117e858286016110fe565b9150509250929050565b61119181610e1a565b82525050565b600060c0820190506111ac6000830189610f05565b81810360208301526111be8188610f6b565b90506111cd6040830187610f05565b81810360608301526111df8186610f6b565b90506111ee6080830185611188565b6111fb60a0830184610ed1565b979650505050505050565b61120f81610efb565b811461121a57600080fd5b50565b60008135905061122c81611206565b92915050565b6000806000806080858703121561124c5761124b610df0565b5b600061125a87828801610e43565b945050602085013567ffffffffffffffff81111561127b5761127a610df5565b5b611287878288016110fe565b93505060406112988782880161121d565b925050606085013567ffffffffffffffff8111156112b9576112b8610df5565b5b6112c5878288016110fe565b91505092959194509250565b7f536f6c6f206c6f73206d656469636f73206175746f72697a61646f732070756560008201527f64656e20616363656465722061206573746120696e666f726d6163696f6e2e00602082015250565b600061132d603f83610f1f565b9150611338826112d1565b604082019050919050565b6000602082019050818103600083015261135c81611320565b9050919050565b7f456c2070616369656e7465206e6f2065737461207265676973747261646f206560008201527f6e206c6120686973746f72696120636c696e6963612e00000000000000000000602082015250565b60006113bf603683610f1f565b91506113ca82611363565b604082019050919050565b600060208201905081810360008301526113ee816113b2565b9050919050565b7f456c206d656469636f206e6f2065737461206175746f72697a61646f2070617260008201527f6120616363656465722061206c6120696e666f726d6163696f6e2064656c207060208201527f616369656e74652e000000000000000000000000000000000000000000000000604082015250565b6000611477604883610f1f565b9150611482826113f5565b606082019050919050565b600060208201905081810360008301526114a68161146a565b9050919050565b7f4e487b7100000000000000000000000000000000000000000000000000000000600052602260045260246000fd5b600060028204905060018216806114f457607f821691505b602082108103611507576115066114ad565b5b50919050565b60008190508160005260206000209050919050565b60006020601f8301049050919050565b600082821b905092915050565b60006008830261156f7fffffffffffffffffffffffffffffffffffffffffffffffffffffffffffffffff82611532565b6115798683611532565b95508019841693508086168417925050509392505050565b6000819050919050565b60006115b66115b16115ac84610efb565b611591565b610efb565b9050919050565b6000819050919050565b6115d08361159b565b6115e46115dc826115bd565b84845461153f565b825550505050565b600090565b6115f96115ec565b6116048184846115c7565b505050565b5b818110156116285761161d6000826115f1565b60018101905061160a565b5050565b601f82111561166d5761163e8161150d565b61164784611522565b81016020851015611656578190505b61166a61166285611522565b830182611609565b50505b505050565b600082821c905092915050565b600061169060001984600802611672565b1980831691505092915050565b60006116a9838361167f565b9150826002028217905092915050565b6116c282610f14565b67ffffffffffffffff8111156116db576116da611001565b5b6116e582546114dc565b6116f082828561162c565b600060209050601f8311600181146117235760008415611711578287015190505b61171b858261169d565b865550611783565b601f1984166117318661150d565b60005b8281101561175957848901518255600182019150602085019450602081019050611734565b868310156117765784890151611772601f89168261167f565b8355505b6001600288020188555050505b505050505050565b7f456c2070616369656e74652079612065737461207265676973747261646f206560008201527f6e206c6120686973746f72696120636c696e6963612e00000000000000000000602082015250565b60006117e7603683610f1f565b91506117f28261178b565b604082019050919050565b60006020820190508181036000830152611816816117da565b9050919050565b6000819050919050565b61183861183382610efb565b61181d565b82525050565b60008160601b9050919050565b60006118568261183e565b9050919050565b60006118688261184b565b9050919050565b61188061187b82610e1a565b61185d565b82525050565b60006118928285611827565b6020820191506118a2828461186f565b6014820191508190509392505050565b600060808201905081810360008301526118cc8187610f6b565b90506118db6020830186610f05565b81810360408301526118ed8185610f6b565b90506118fc6060830184611188565b9594505050505056fea2646970667358221220a88b81c6db8de8ade6808f952387d7642f52619355f893360f0024adda9c3a3e64736f6c63430008130033",
  "immutableReferences": {},
  "source": "// SPDX-License-Identifier: MIT\r\npragma solidity ^0.8.0;\r\n\r\ncontract HistoriaClinica {\r\n    // Estructura de datos para la informacion de un paciente\r\n    struct Paciente {\r\n        uint256 id;\r\n        string nombre;\r\n        uint256 edad;\r\n        string diagnostico;\r\n        address medico;\r\n        bool autorizado;\r\n    }\r\n\r\n    // Mapping que relaciona la direccion del paciente con su informacion\r\n    mapping(address => Paciente) public pacientes;\r\n\r\n    // Evento que se emite cuando se agrega un nuevo paciente a la historia clinica\r\n    event PacienteAgregado(\r\n        address indexed paciente,\r\n        string nombre,\r\n        uint256 edad,\r\n        string diagnostico,\r\n        address medico\r\n    );\r\n\r\n    // Modificador para restringir el acceso solo a medicos autorizados\r\n    modifier soloMedicosAutorizados() {\r\n        require(\r\n            pacientes[msg.sender].autorizado,\r\n            \"Solo los medicos autorizados pueden acceder a esta informacion.\"\r\n        );\r\n        _;\r\n    }\r\n\r\n    // Funcion para agregar un nuevo paciente a la historia clinica\r\n    function agregarPaciente(\r\n        address _paciente,\r\n        string memory _nombre,\r\n        uint256 _edad,\r\n        string memory _diagnostico\r\n    ) public {\r\n        // Verificar que el paciente no este registrado\r\n        require(\r\n            pacientes[_paciente].id == 0,\r\n            \"El paciente ya esta registrado en la historia clinica.\"\r\n        );\r\n\r\n        // Obtener el ID del nuevo paciente\r\n        uint256 nuevoId = uint256(\r\n            keccak256(abi.encodePacked(block.timestamp, _paciente))\r\n        );\r\n\r\n        // Crear la nueva estructura de datos del paciente\r\n        Paciente memory nuevoPaciente = Paciente({\r\n            id: nuevoId,\r\n            nombre: _nombre,\r\n            edad: _edad,\r\n            diagnostico: _diagnostico,\r\n            medico: msg.sender,\r\n            autorizado: true\r\n        });\r\n\r\n        // Agregar el nuevo paciente al mapping\r\n        pacientes[_paciente] = nuevoPaciente;\r\n\r\n        // Emitir el evento de paciente agregado\r\n        emit PacienteAgregado(\r\n            _paciente,\r\n            _nombre,\r\n            _edad,\r\n            _diagnostico,\r\n            msg.sender\r\n        );\r\n    }\r\n\r\n    // Funcion para obtener la informacion de un paciente\r\n    function obtenerInformacionPaciente(\r\n        address _paciente\r\n    )\r\n        public\r\n        view\r\n        soloMedicosAutorizados\r\n        returns (uint256, string memory, uint256, string memory)\r\n    {\r\n        // Verificar que el paciente este registrado\r\n        require(\r\n            pacientes[_paciente].id != 0,\r\n            \"El paciente no esta registrado en la historia clinica.\"\r\n        );\r\n\r\n        // Obtener la informacion del paciente y retornarla\r\n        Paciente memory paciente = pacientes[_paciente];\r\n        return (\r\n            paciente.id,\r\n            paciente.nombre,\r\n            paciente.edad,\r\n            paciente.diagnostico\r\n        );\r\n    }\r\n\r\n    // Funcion para actualizar el diagnostico de un paciente\r\n    function actualizarDiagnostico(\r\n        address _paciente,\r\n        string memory _diagnostico\r\n    ) public soloMedicosAutorizados {\r\n        // Verificar que el paciente este registrado\r\n        require(\r\n            pacientes[_paciente].id != 0,\r\n            \"El paciente no esta registrado en la historia clinica.\"\r\n        );\r\n\r\n        // Actualizar el diagnostico del paciente\r\n        pacientes[_paciente].diagnostico = _diagnostico;\r\n    }\r\n\r\n    function isDoctor(address _medico) public view returns (bool) {\r\n        return pacientes[_medico].autorizado;\r\n    }\r\n\r\n    // Funcion para autorizar a un medico para acceder a la informacion de un paciente\r\n    function autorizarMedico(\r\n        address _medico,\r\n        address _paciente\r\n    ) public soloMedicosAutorizados {\r\n        // Verificar que el paciente\r\n        require(\r\n            pacientes[_paciente].id != 0,\r\n            \"El paciente no esta registrado en la historia clinica.\"\r\n        );\r\n\r\n        // Autorizar al medico para acceder a la informacion del paciente\r\n        pacientes[_paciente].autorizado = true;\r\n    }\r\n\r\n    // Funcion para revocar la autorizacion de un medico para acceder a la informacion de un paciente\r\n    function revocarAutorizacionMedico(\r\n        address _medico,\r\n        address _paciente\r\n    ) public soloMedicosAutorizados {\r\n        // Verificar que el paciente este registrado y que el medico este autorizado\r\n        require(\r\n            pacientes[_paciente].id != 0,\r\n            \"El paciente no esta registrado en la historia clinica.\"\r\n        );\r\n        require(\r\n            pacientes[_paciente].medico == _medico,\r\n            \"El medico no esta autorizado para acceder a la informacion del paciente.\"\r\n        );\r\n\r\n        // Revocar la autorizacion del medico para acceder a la informacion del paciente\r\n        pacientes[_paciente].autorizado = false;\r\n    }\r\n}\r\n",
  "sourcePath": "C:\\xampp\\htdocs\\Dapp\\contracts\\HistoriaClinica.sol",
  "compiler": {
    "name": "solc",
    "version": "0.8.19+commit.7dd6d404.Emscripten.clang"
  },
  "schemaVersion": "3.4.13",
  "updatedAt": "2023-05-01T23:26:21.188Z",
  "networkType": "ethereum",
  "devdoc": {
    "kind": "dev",
    "methods": {},
    "version": 1
  },
  "userdoc": {
    "kind": "user",
    "methods": {},
    "version": 1
  }
}